:02000002D0002C
:1040000000400D0074510D00000006000C00050179
:084010000401BD0B00000000DB
:04401800284F0D0020
:10401C0009480A49884208B505D0094A824202D0AB
:10402C00121A00F039FF0748074A0021121A00F053
:10403C0041FF014808BD00BFCCE50320E4500D0052
:10404C0034E6032034E60320F0E7032070B5074E76
:10405C00074C00F01BFEA41BA4080025A54200D1B0
:10406C0070BD56F8043B98470135F7E7B0500D008A
:10407C00D4500D0000F01BB808B500F023F8BDE8D3
:10408C00084000F0C5BD00F0E3B900F0E9B90078D4
:10409C00B0FA80F04009704701230370704710B5E7
:1040AC000446006808B100F0DBF9204610BD08B5E5
:1040BC000121052000F05AFEBDE808400021062031
:1040CC0000F054BE08B5062000F07AFE014600B19F
:1040DC000121BDE80840052000F059BE38B50A4C56
:1040EC000A4BA360002503202560A580A57100F074
:1040FC0023F90749074A204600F0B6FE294601205D
:10410C00BDE8384000F020B938E603200000FFFF7E
:10411C00AB400D0034E6032008B5024B1B685B6C0A
:10412C00019308BD4802030008B5024B1B689B6C49
:10413C00019308BD4802030008B5024B1B685B687D
:10414C00019308BD1802030008B5024B1B685B699C
:10415C00019308BD1802030008B5024B1B689B684D
:10416C00019308BD2C02030008B5024B1B68DB68E9
:10417C00019308BD2C02030008B5024B1B681B6998
:10418C00019308BD2C02030008B5024B1B685B6948
:10419C00019308BD2C02030008B5024B1B681B6A77
:1041AC00019308BD2802030008B5024B1B685B6A2B
:1041BC00019308BD2802030008B5024B1B689B6ADB
:1041CC00019308BD2802030008B5024B1B68DB6A8B
:1041DC00019308BD2802030008B5024B1B681B6B3A
:1041EC00019308BD2802030008B5024B1B685B6BEA
:1041FC00019308BD2802030008B5024B1B681B6C19
:10420C00019308BD2802030008B5024B1B685B69CB
:10421C00019308BD6402030008B5024B1B689B6840
:10422C00019308BD6802030008B5024B1B68DB68EC
:10423C00019308BD6802030008B5024B1B68DB69DB
:10424C00019308BD3002030008B5024B1B681B6AC2
:10425C00019308BD3002030008B5024B1B681B68B4
:10426C00019308BD3C02030008B5024B1B68DB68D8
:10427C00019308BD3C02030008B5024B1B681B6987
:10428C00019308BD3C02030008B5024B1B685B6937
:10429C00019308BD3C02030008B5024B1B689B69E7
:1042AC00019308BD3C02030008B5024B1B68DB6997
:1042BC00019308BD3C02030008B5024B1B681B6A46
:1042CC00019308BD3C02030008B5024B1B689B6AB6
:1042DC00019308BD3C02030008B5024B1B681B6828
:1042EC00019308BD4C02030008B5024B1B681B6907
:1042FC00019308BD4C02030008B5024B1B685B69B7
:10430C00019308BD4C02030008B5024B1B689B6966
:10431C00019308BD4C02030008B5024B1B68DB6916
:10432C00019308BD4C02030008B5024B1B681B6AC5
:10433C00019308BD4C02030008B5024B1B685B6877
:10434C00019308BD2002030008B5024B1B68DB6A11
:10435C00019308BD2002030008B5034B1B68D3F87A
:10436C008830019308BD00002002030008B5034B00
:10437C001B68D3F89430019308BD000020020300A1
:10438C0008B5024B1B68DB6B019308BD44020300AC
:10439C0008B5024B1B685B68019308BD4002030023
:1043AC0008B5024B1B689B68019308BD40020300D3
:1043BC0008B5024B1B68DB68019308BD4002030083
:1043CC0008B5024B1B681B69019308BD4002030032
:1043DC0008B5024B1B685B69019308BD40020300E2
:1043EC0008B5024B1B689B69019308BD4002030092
:1043FC0008B5024B1B68DB69019308BD4002030042
:10440C0008B5024B1B681B6A019308BD40020300F0
:10441C0008B5024B1B681B6B019308BD40020300DF
:10442C0008B5024B1B685B6B019308BD400203008F
:10443C0008B5024B1B681B6C019308BD40020300BE
:10444C0008B5024B1B685B6C019308BD400203006E
:10445C0008B5024B1B681B68019308BD1C020300C6
:10446C0008B5024B1B685B68019308BD1C02030076
:10447C0008B5024B1B685B6C019308BD1C02030062
:10448C0010B50446006808B1FFF74EFE204610BD7B
:10449C0010B58368044613B10322014698472046A1
:1044AC0010BD000010B5064C002320462360FFF71A
:1044BC0033FE2046034A0449BDE8104000F0D4BC4A
:1044CC0044E6032034E603208D440D0000224068AE
:1044DC001146FFF795BF002240681146FFF7A0BFB9
:1044EC0040680022FFF794BF4068002281F0010170
:1044FC00FFF77EBF002340681A461946FFF770BFCE
:10450C00002340681A461946FFF762BF0022406834
:10451C001146FFF755BF002240681146FFF740BF18
:10452C00406800220221FFF743BF002340681A466F
:10453C00FFF72EBF024B03225A60024A1A607047E3
:10454C0048E60320444F0D007047F8B50646154663
:10455C000C468F18BC4206D0336814F8011B9B68BC
:10456C0030469847F6E72846F8BD007C0022FFF756
:10457C0013BE007C0021FFF717BE007C0021FFF763
:10458C001BBE007C0021FFF71FBE007C0021FFF743
:10459C0023BE10B51421044600F06BFC204610BD60
:1045AC0010B54FF47A73044608460021C4E9011390
:1045BC00034B236020741146FFF71EFE204610BDEE
:1045CC00804F0D00704710B51821044600F051FCC7
:1045DC00204610BDF0B5037D062B8DB00E4600F1C4
:1045EC0004074FF0000412D000F1080515F8011D66
:1045FC000A22304600F045F9AF42044419D0002C91
:10460C00F4D02E21304600F039F90444EEE72F2384
:10461C006A4639460A208DF80040FFF7F5FD6846DA
:10462C0000F074FC33680246DB68694630469847F4
:10463C00044620460DB0F0BD10B5054B04461122C2
:10464C0040F8043B002100F035FC204610BD00BFB3
:10465C00A84F0D000346074A10B543F8042B01F18F
:10466C00100251F8044B43F8044B9142F9D10A78EB
:10467C001A7010BDA84F0D0010B59DF8084044EA03
:10468C00032343EA024242EA0161042341600375B9
:10469C0010BD000013B5054B0360CB7800938B78ED
:1046AC004A780978FFF7E8FF02B010BDA84F0D005B
:1046BC00014B024A1A60704750E60320B44F0D00BC
:1046CC00002340681A46FFF763BE406800220221AF
:1046DC00FFF76EBE002240681146FFF761BE002254
:1046EC0040681146FFF76CBE002340681A46194615
:1046FC00FFF76EBE002340681A461946FFF770BEDE
:10470C0040680021FFF794BE40680021FFF798BE77
:10471C004068002281F00101FFF76ABE4068002268
:10472C00FFF776BE002240681146FFF779BE0022E3
:10473C0040681146FFF764BE2DE9F043002495B0A4
:10474C0016460D460746FFF777FF214618220EA89E
:10475C00009400F0AFFB4023CDE90C3421466B46AE
:10476C000CAA3046FFF760FD044600284CD10246E7
:10477C0001216868FFF724FE022180462246686802
:10478C00FFF71EFE009E81462146002E3CD00029DC
:10479C003AD17368022B03D00A2B11D0F669F4E7D7
:1047AC00B8F1000F0AD0716906A8043107ADFFF704
:1047BC0071FF0FCD3C1D0FC42B6823704146EDE7F4
:1047CC00B9F1000F01D14946E8E77469102201A83C
:1047DC0000F070FB06238DF8143001AD04F10803D2
:1047EC001834186859682A4603C20833A342154680
:1047FC00F7D101A906A807ADFFF72CFF0FCD3C1D83
:10480C000FC42B682370DEE70098FFF705FD3846D0
:10481C0015B0BDE8F0830000024B034A1A60002279
:10482C005A60704754E60320C04F0D00F8B5064699
:10483C000D468F180024BD420CD0336815F8011BAF
:10484C009B6830469847031E01DB1C44F3E7002CA1
:10485C0008BF1C462046F8BD13B50446084659B19E
:10486C00019100F053FB23680199DB680246204656
:10487C0002B0BDE81040184702B010BD03689B6839
:10488C00184730B58BB000238DF82430012A98BF1F
:10489C000A2209AC0D46B1FBF2F101FB125303F0F5
:1048AC00FF03092B94BF30333733DBB2AA4204F831
:1048BC00013DEFD92146FFF7CFFF0BB030BD10B54E
:1048CC000446FFF7E5FD204610BD00000348044AEE
:1048DC0004490023836000F0C7BA00BF5CE60320E4
:1048EC0034E60320CB480D0010B504460846217071
:1048FC00FFF7A2FC00236360204610BD10B5094BE6
:10490C00094C022200201A60084B2060A080A07184
:10491C00A360FFF711FD2046054A0649BDE810408B
:10492C0000F0A2BA78E603206CE603200000FFFF3B
:10493C0034E60320AB400D00024B1A68024B1A60A0
:10494C00704700BFCCE503207CE603207047417420
:10495C00704708B5007CFFF7B7FC20EAE07008BD93
:10496C0008B5007CFFF788FC20EAE07008BD08B5AC
:10497C00007CFFF791FC40EAE07008BD08B5007CB4
:10498C00FFF782FC40EAE07008BD007CFFF78CBCAE
:10499C0037B5457C04462DB1207C03B0BDE83040D2
:1049AC00FFF762BC007C0191FFF78EFC0028019997
:1049BC00F2DC284603B030BD10B51421044600F0DB
:1049CC0058FA204610BD000010B54FF0000C0446FC
:1049DC00084611464FF47A72C4E901C2044A2260B7
:1049EC000122207462741A46FFF736FC204610BD73
:1049FC0018500D0013B50E4C2178BFF35B8F11F0DE
:104A0C00010112D120460191FFF741FB019960B1E0
:104A1C00084A094B0948FFF7D7FF2046FFF73CFB34
:104A2C00074A0849054800F01FFA044802B010BDB7
:104A3C0080E6032084E6032008E703208CE70320AC
:104A4C0034E6032059490D0041747047704708B58E
:104A5C000021007CFFF758FC40EAE07008BD08B567
:104A6C000121007CFFF750FC40EAE07008BD08B55E
:104A7C00007CFFF741FC20EAE07008BD08B5007C23
:104A8C00FFF732FC20EAE07008BD13B50446007C49
:104A9C000191FFF731FC0028019901DC607C20B109
:104AAC00207CFFF739FC20EAE07002B010BD007CDE
:104ABC00FFF73ABC10B51421044600F0DAF9204691
:104ACC0010BD000010B54FF47A730446084600215F
:104ADC00C4E90113044B2360012320746374114651
:104AEC00FFF7FAFB204610BD48500D0010B51422FC
:104AFC000446002100F0DEF9204610BD10B5104C24
:104B0C0088B003A8FFF7F2FF2178BFF35B8F11F099
:104B1C00010111D120460191FFF7B9FA019958B161
:104B2C0003AA0848FFF7CEFF2046FFF7B5FA064A5E
:104B3C000649044800F098F9024808B010BD00BFBF
:104B4C00A0E70320A4E7032034E60320594A0D0014
:104B5C00002240681146FFF733BC00224068114622
:104B6C00FFF74EBC002240681146FFF759BC406865
:104B7C000022FFF74DBC4068002281F00101FFF7D5
:104B8C0037BC002340681A461946FFF729BC00239E
:104B9C0040681A461946FFF71BBC002240681146B4
:104BAC00FFF7FEBB406800220221FFF701BC002387
:104BBC0040681A46FFF7ECBB024B04225A60024ACB
:104BCC001A607047B8E7032078500D00014B18604D
:104BDC00704700BFD0E5032008B50B4B43B1FFF77E
:104BEC008DFF03681B699847002801DDAFF3008037
:104BFC00064B43B1FFF7FEFE03681B69984700287C
:104C0C0001DDAFF3008008BD0000000000000000D3
:104C1C0008B5FFF7E1FFFFF797FA014B186008BDE5
:104C2C00D4E703200248034A0349121A00F034B9AE
:104C3C0000F4032004F40320E0500D0007B500231A
:104C4C0000931A466FF07701FFF790FB03B05DF805
:104C5C0004FB000007B543880A2B08D0502B0BD15E
:104C6C00094B1B684BB103B05DF804EB1847FFF719
:104C7C00E5FF03B05DF804FB002300931A466FF0C8
:104C8C007701FFF773FBF4E7C4E7032038B5124C48
:104C9C001248134D0021FFF7EBFB2368AB42114B7D
:104CAC000CBF012200221A7002D0FFF7BBFF256057
:104CBC00FFF742FA044600F005F90B4B13B12046FE
:104CCC00AFF3008000210848FFF75AFBBDE83840DD
:104CDC0006480021FFF740BB00F40320D94B0D0020
:104CEC001E1C279AC0E7032000000000614C0D0039
:104CFC00232813B502D9002002B010BDA0F10B037C
:104D0C00022B1AD8174C2178BFF35B8F11F00101DD
:104D1C000BD120460191FFF7BAF9019928B112483D
:104D2C00FFF7E2FD2046FFF7B7F90F4B1878FFF7B6
:104D3C008BFA0028DFD10120DEE7012809D800F02A
:104D4C006BF80021007CFFF74FFA80F00100C0B235
:104D5C00D2E709380128EED8FFF74CFE007CFFF7AC
:104D6C00ABFAF2E7C8E70320CCE70320232838B5D9
:104D7C0004460D460AD8FF2908D0FFF7B9FF28B121
:104D8C0029462046BDE83840FFF7E6B938BD38B5AE
:104D9C0004460D46FFF7E8F9FF2810D0062804D882
:104DAC004D2323FA00F0C30709D42046FFF7A0FFD8
:104DBC0028B129462046BDE83840FFF7DDB938BD9B
:104DCC0010B50446FFF7D0F9031FDBB2012B08D94D
:104DDC002046FFF78DFF20B12046BDE81040FFF7BD
:104DEC00D3B9002010BD000038B500232025438026
:104DFC00142304460380856005610649284600F0AB
:104E0C003AF804496060284600F035F8E060204626
:104E1C0038BD00BFAC500D0030B50F4D2978BFF335
:104E2C005B8F11F0010487B013D12846FFF72FF9DF
:104E3C0078B101A8FFF7D8FF01AA21460748FFF770
:104E4C00AFFB2846FFF728F9054A0649034800F04E
:104E5C000BF8024807B030BDD8E70320DCE703208D
:104E6C0034E6032055450D000B460146184600F06C
:104E7C0005B8FFF70AB9FFF706B9000010B5054CE5
:104E8C0013462CB10A4601460220AFF3008010BD38
:104E9C002046FCE7000000000A44914200F1FF3379
:104EAC0000D1704710B511F8014B03F8014F914236
:104EBC00F9D110BD02440346934200D1704703F868
:104ECC00011BF9E738B50D4B1D68AB6B04467BB97C
:104EDC001820FFF7BDFA0A4A0A4BA863C0E9002361
:104EEC00094B83600B23838101220023C0E9042337
:104EFC00AB6B00221C615A6138BD00BFD0E50320AA
:104F0C000E33CDAB34126DE6ECDE0500034613F820
:104F1C00012B002AFBD1181A013870471D400D00D7
:104F2C0059400D0081400D0085400D00000000002F
:104F3C00000000000000000037450D002D450D005D
:104F4C0023450D0019450D000D450D0001450D00C3
:104F5C000D470D0015470D00F5440D00ED440D00F7
:104F6C00E3440D00D9440D0045470D00000000003E
:104F7C000000000055450D009F450D0077450D00C4
:104F8C0057450D007F450D0087450D008F450D00E1
:104F9C0097450D000000000000000000E1450D00E9
:104FAC00D1450D00D3450D0061707000000000006C
:104FBC0000000000CD460D00D7460D00E1460D0067
:104FCC00EB460D00F5460D0001470D000D470D0099
:104FDC0015470D001D470D0029470D0031470D00E9
:104FEC003B470D0045470D0025592D256D2D25649A
:104FFC005425483A254D3A2553257A00617363743C
:10500C00696D6500000000000000000059490D00AA
:10501C00C5490D009D490D0039480D006D490D0025
:10502C0089490D007B490D0097490D005B490D0026
:10503C005F490D000000000000000000594A0D00FF
:10504C00C14A0D00974A0D0039480D00894A0D00E0
:10505C005B4A0D006B4A0D00BB4A0D007B4A0D00EC
:10506C00554A0D000000000000000000BB4B0D0075
:10507C00B14B0D00A74B0D005D4B0D009B4B0D0074
:10508C008F4B0D000D470D0015470D00834B0D0088
:10509C007B4B0D00714B0D00674B0D0045470D0010
:1050AC0000000000E9400D00B1440D0041450D0029
:1050BC00BD460D0025480D00D9480D0009490D00CD
:1050CC0045490D00C54B0D0000000000000000001C
:0450DC0000000000D0
:0450E00000000000CC
:1050E40008500D00D4E5032000000000000000007B
:1050F40000000000000000000000000000000000AC
:10510400000000000000000000000000000000009B
:10511400000000000000000000000000000000008B
:10512400000000000000000000000000000000007B
:10513400000000000000000000000000000000006B
:08514400000000000000000063
:10514C00FFFFFFFF00000102030405060708090A20
:10515C000B0C0D0E0F101112131415161718191A1B
:08516C001B1C1D1E1F20280062
:045174007856341223
:04000003D000401CCD
:00000001FF
